{
  "contractName": "CadenaSuministro",
  "abi": [
    {
      "inputs": [],
      "stateMutability": "nonpayable",
      "type": "constructor"
    },
    {
      "anonymous": false,
      "inputs": [
        {
          "indexed": true,
          "internalType": "uint256",
          "name": "id",
          "type": "uint256"
        },
        {
          "indexed": false,
          "internalType": "bool",
          "name": "autentico",
          "type": "bool"
        }
      ],
      "name": "ProductoVerificado",
      "type": "event"
    },
    {
      "inputs": [],
      "name": "owner",
      "outputs": [
        {
          "internalType": "address",
          "name": "",
          "type": "address"
        }
      ],
      "stateMutability": "view",
      "type": "function",
      "constant": true
    },
    {
      "inputs": [
        {
          "internalType": "uint256",
          "name": "",
          "type": "uint256"
        }
      ],
      "name": "productos",
      "outputs": [
        {
          "internalType": "uint256",
          "name": "id",
          "type": "uint256"
        },
        {
          "internalType": "string",
          "name": "nombre",
          "type": "string"
        },
        {
          "internalType": "string",
          "name": "lugarOrigen",
          "type": "string"
        },
        {
          "internalType": "bool",
          "name": "autentico",
          "type": "bool"
        }
      ],
      "stateMutability": "view",
      "type": "function",
      "constant": true
    },
    {
      "inputs": [
        {
          "internalType": "uint256",
          "name": "id",
          "type": "uint256"
        },
        {
          "internalType": "string",
          "name": "nombre",
          "type": "string"
        },
        {
          "internalType": "string",
          "name": "lugarOrigen",
          "type": "string"
        }
      ],
      "name": "agregarProducto",
      "outputs": [],
      "stateMutability": "nonpayable",
      "type": "function"
    },
    {
      "inputs": [
        {
          "internalType": "uint256",
          "name": "id",
          "type": "uint256"
        }
      ],
      "name": "verificarProducto",
      "outputs": [
        {
          "internalType": "bool",
          "name": "",
          "type": "bool"
        }
      ],
      "stateMutability": "nonpayable",
      "type": "function"
    }
  ],
  "bytecode": "0x608060405234801561000f575f80fd5b50335f806101000a81548173ffffffffffffffffffffffffffffffffffffffff021916908373ffffffffffffffffffffffffffffffffffffffff160217905550610b988061005c5f395ff3fe608060405234801561000f575f80fd5b506004361061004a575f3560e01c8063099d20ec1461004e5780638da5cb5b1461006a5780639955363614610088578063d7ca7c1a146100bb575b5f80fd5b610068600480360381019061006391906105b1565b6100eb565b005b610072610207565b60405161007f9190610678565b60405180910390f35b6100a2600480360381019061009d9190610691565b61022a565b6040516100b2949392919061075f565b60405180910390f35b6100d560048036038101906100d09190610691565b61036e565b6040516100e291906107b0565b60405180910390f35b5f8054906101000a900473ffffffffffffffffffffffffffffffffffffffff1673ffffffffffffffffffffffffffffffffffffffff163373ffffffffffffffffffffffffffffffffffffffff1614610178576040517f08c379a000000000000000000000000000000000000000000000000000000000815260040161016f90610813565b60405180910390fd5b60405180608001604052808481526020018381526020018281526020015f151581525060015f8581526020019081526020015f205f820151815f015560208201518160010190816101c99190610a2b565b5060408201518160020190816101df9190610a2b565b506060820151816003015f6101000a81548160ff021916908315150217905550905050505050565b5f8054906101000a900473ffffffffffffffffffffffffffffffffffffffff1681565b6001602052805f5260405f205f91509050805f01549080600101805461024f9061085e565b80601f016020809104026020016040519081016040528092919081815260200182805461027b9061085e565b80156102c65780601f1061029d576101008083540402835291602001916102c6565b820191905f5260205f20905b8154815290600101906020018083116102a957829003601f168201915b5050505050908060020180546102db9061085e565b80601f01602080910402602001604051908101604052809291908181526020018280546103079061085e565b80156103525780601f1061032957610100808354040283529160200191610352565b820191905f5260205f20905b81548152906001019060200180831161033557829003601f168201915b505050505090806003015f9054906101000a900460ff16905084565b5f8060015f8481526020019081526020015f205f0154036103c4576040517f08c379a00000000000000000000000000000000000000000000000000000000081526004016103bb90610b44565b60405180910390fd5b6001805f8481526020019081526020015f206003015f6101000a81548160ff021916908315150217905550817fb38e88009498724d8d2ac171da847111d7656dea18bd001310c73f2ff501fdbf600160405161042091906107b0565b60405180910390a260019050919050565b5f604051905090565b5f80fd5b5f80fd5b5f819050919050565b61045481610442565b811461045e575f80fd5b50565b5f8135905061046f8161044b565b92915050565b5f80fd5b5f80fd5b5f601f19601f8301169050919050565b7f4e487b71000000000000000000000000000000000000000000000000000000005f52604160045260245ffd5b6104c38261047d565b810181811067ffffffffffffffff821117156104e2576104e161048d565b5b80604052505050565b5f6104f4610431565b905061050082826104ba565b919050565b5f67ffffffffffffffff82111561051f5761051e61048d565b5b6105288261047d565b9050602081019050919050565b828183375f83830152505050565b5f61055561055084610505565b6104eb565b90508281526020810184848401111561057157610570610479565b5b61057c848285610535565b509392505050565b5f82601f83011261059857610597610475565b5b81356105a8848260208601610543565b91505092915050565b5f805f606084860312156105c8576105c761043a565b5b5f6105d586828701610461565b935050602084013567ffffffffffffffff8111156105f6576105f561043e565b5b61060286828701610584565b925050604084013567ffffffffffffffff8111156106235761062261043e565b5b61062f86828701610584565b9150509250925092565b5f73ffffffffffffffffffffffffffffffffffffffff82169050919050565b5f61066282610639565b9050919050565b61067281610658565b82525050565b5f60208201905061068b5f830184610669565b92915050565b5f602082840312156106a6576106a561043a565b5b5f6106b384828501610461565b91505092915050565b6106c581610442565b82525050565b5f81519050919050565b5f82825260208201905092915050565b5f5b838110156107025780820151818401526020810190506106e7565b5f8484015250505050565b5f610717826106cb565b61072181856106d5565b93506107318185602086016106e5565b61073a8161047d565b840191505092915050565b5f8115159050919050565b61075981610745565b82525050565b5f6080820190506107725f8301876106bc565b8181036020830152610784818661070d565b90508181036040830152610798818561070d565b90506107a76060830184610750565b95945050505050565b5f6020820190506107c35f830184610750565b92915050565b7f4e6f206175746f72697a61646f000000000000000000000000000000000000005f82015250565b5f6107fd600d836106d5565b9150610808826107c9565b602082019050919050565b5f6020820190508181035f83015261082a816107f1565b9050919050565b7f4e487b71000000000000000000000000000000000000000000000000000000005f52602260045260245ffd5b5f600282049050600182168061087557607f821691505b60208210810361088857610887610831565b5b50919050565b5f819050815f5260205f209050919050565b5f6020601f8301049050919050565b5f82821b905092915050565b5f600883026108ea7fffffffffffffffffffffffffffffffffffffffffffffffffffffffffffffffff826108af565b6108f486836108af565b95508019841693508086168417925050509392505050565b5f819050919050565b5f61092f61092a61092584610442565b61090c565b610442565b9050919050565b5f819050919050565b61094883610915565b61095c61095482610936565b8484546108bb565b825550505050565b5f90565b610970610964565b61097b81848461093f565b505050565b5b8181101561099e576109935f82610968565b600181019050610981565b5050565b601f8211156109e3576109b48161088e565b6109bd846108a0565b810160208510156109cc578190505b6109e06109d8856108a0565b830182610980565b50505b505050565b5f82821c905092915050565b5f610a035f19846008026109e8565b1980831691505092915050565b5f610a1b83836109f4565b9150826002028217905092915050565b610a34826106cb565b67ffffffffffffffff811115610a4d57610a4c61048d565b5b610a57825461085e565b610a628282856109a2565b5f60209050601f831160018114610a93575f8415610a81578287015190505b610a8b8582610a10565b865550610af2565b601f198416610aa18661088e565b5f5b82811015610ac857848901518255600182019150602085019450602081019050610aa3565b86831015610ae55784890151610ae1601f8916826109f4565b8355505b6001600288020188555050505b505050505050565b7f50726f647563746f206e6f20656e636f6e747261646f000000000000000000005f82015250565b5f610b2e6016836106d5565b9150610b3982610afa565b602082019050919050565b5f6020820190508181035f830152610b5b81610b22565b905091905056fea264697066735822122011bbfb95e7d88551cc373f147fb5ebe82716cc9e361e3920533de5f1a88d708864736f6c63430008150033",
  "immutableReferences": {},
  "source": "// SPDX-License-Identifier: MIT\r\npragma solidity ^0.8.0;\r\n\r\ncontract CadenaSuministro {\r\n    address public owner;\r\n\r\n    struct Producto {\r\n        uint256 id;\r\n        string nombre;\r\n        string lugarOrigen;\r\n        bool autentico;\r\n    }\r\n\r\n    mapping(uint256 => Producto) public productos;\r\n\r\n    modifier soloPropietario() {\r\n        require(msg.sender == owner, \"No autorizado\");\r\n        _;\r\n    }\r\n\r\n    event ProductoVerificado(uint256 indexed id, bool autentico);\r\n\r\n    constructor() {\r\n        owner = msg.sender;\r\n    }\r\n\r\n    function agregarProducto(uint256 id, string memory nombre, string memory lugarOrigen) public soloPropietario {\r\n        productos[id] = Producto(id, nombre, lugarOrigen, false);\r\n    }\r\n\r\n    function verificarProducto(uint256 id) public returns (bool) {\r\n        require(productos[id].id != 0, \"Producto no encontrado\");\r\n\r\n        productos[id].autentico = true;\r\n\r\n        emit ProductoVerificado(id, true);\r\n\r\n        return true;\r\n    }\r\n}\r\n",
  "sourcePath": "d:\\GitHub\\BlockSafeFood\\contracts\\CadenaSuministro.sol",
  "compiler": {
    "name": "solc",
    "version": "0.8.21+commit.d9974bed.Emscripten.clang"
  },
  "schemaVersion": "3.4.16",
  "updatedAt": "2023-11-14T12:27:25.608Z",
  "networkType": "ethereum",
  "devdoc": {
    "kind": "dev",
    "methods": {},
    "version": 1
  },
  "userdoc": {
    "kind": "user",
    "methods": {},
    "version": 1
  }
}